:100000000C94A7000C94C4000C94C4000C94C4007D
:100010000C94C4000C94C4000C94C4000C94C40050
:100020000C94C4000C94C4000C94C4000C94C40040
:100030000C94C4000C94C4000C94C4000C94C40030
:100040000C94C4000C94C4000C94C4000C94C40020
:100050000C94C40000407A10F35A00A0724E1809A4
:100060000010A5D4E80000E87648170000E40B541F
:10007000020000CA9A3B000000E1F50500008096EE
:100080009800000040420F000000A0860100000020
:10009000102700000000E8030000000064000000DA
:1000A00000000A00000000000100000000002C76A3
:1000B000D888DC674F0823DFC1DFAE59E1B1B796BE
:1000C000E5E3E453C63AE651997696E8E6C284261B
:1000D000EB898C9B62ED407C6FFCEFBC9C9F40F2F7
:1000E000BAA56FA5F490055A2AF75C936B6CF96773
:1000F0006DC11BFCE0E40D47FEF520E6B500D0ED38
:10010000902E0300943577050080841E080000209F
:100110004E0A000000C80C333333330F986E12833D
:100120001141EF8D2114893BE65516CFFEE6DB1811
:10013000D1844B381BF77C1D901DA4BBE4242032D6
:1001400084725E228100C9F124ECA1E53D271124CF
:100150001FBECFE5D8E0DEBFCDBF12E0A0E6B0E025
:10016000E6E9F4E502C005900D92AC3FB107D9F77E
:1001700013E0ACEFB2E001C01D92AF30B107E1F780
:100180000E944D270C94492A0C940000EF92FF9294
:100190000F931F937B018C0120E030E040E05FE48F
:1001A0000E94A20488238CF0C801B70120E030E04F
:1001B00040E05FE40E943E020E9490059B01AC017A
:1001C000205030404040504806C0C801B7010E944E
:1001D00090059B01AC01B901CA011F910F91FF90DD
:1001E000EF900895A0E0B0E0E8EFF0E00C94722703
:1001F000DC012B01FA019C91923008F439C1EB012A
:100200008881823008F433C1943069F4843009F075
:100210002FC111969C9111978981981709F428C1D3
:10022000A6EEB1E025C1843009F421C18230A9F4E1
:10023000923009F01DC19A01AD0188E0EA010990F0
:10024000AE01E90109929E018150C1F7E201898165
:1002500011969C918923818308C1923009F407C1CA
:1002600012962D903C901397EB018A819B811496F6
:10027000AD90BD90CD90DC901797EC80FD800E8105
:100280001F819101281B390BB90137FF04C0662774
:100290007727621B730B603271050CF061C0121678
:1002A00013066CF537014801062E04C09694879416
:1002B000779467940A94D2F721E030E040E050E070
:1002C00004C0220F331F441F551F6A95D2F72150D7
:1002D0003040404050402E213F21402351232115E2
:1002E00031054105510521F021E030E040E050E0CA
:1002F00079018A01E628F728082919293CC0232B0F
:10030000D1F1260E371E35014601062E04C0969403
:100310008794779467940A94D2F721E030E040E024
:1003200050E004C0220F331F441F551F6A95D2F7B7
:1003300021503040404050402A213B214C215D213A
:10034000211531054105510521F021E030E040E063
:1003500050E059016A01A628B728C828D9280BC03F
:10036000821593052CF01C01AA24BB24650103C04F
:10037000EE24FF24870111969C91D20111968C9155
:10038000981709F445C0992339F0A80197012A1953
:100390003B094C095D0906C0A60195012E193F09CC
:1003A000400B510B57FD08C01182338222822483F7
:1003B0003583468357831DC081E081833382228247
:1003C00088279927DC01821B930BA40BB50B848330
:1003D0009583A683B7830DC0220F331F441F551F7B
:1003E0002483358346835783828193810197938346
:1003F00082832481358146815781DA01C9010197C1
:10040000A109B1098F5F9F4FAF4FBF4328F30BC0C6
:10041000918333822282EA0CFB1C0C1D1D1DE48299
:10042000F5820683178383E08083248135814681AA
:10043000578157FF1AC0C901AA2797FDA095BA2F67
:1004400081709070A070B07056954795379527953C
:10045000822B932BA42BB52B84839583A683B78300
:1004600082819381019693838283DF0101C0D2014F
:10047000CD01CDB7DEB7E2E10C948E27A0E2B0E06B
:10048000E4E4F2E00C947E2769837A838B839C8377
:100490002D833E834F835887E9E0EE2EF12CEC0E3E
:1004A000FD1ECE010196B7010E9481078E010F5EED
:1004B0001F4FCE010596B8010E9481078A8991E0FD
:1004C00089278A8BC701B801AE01475E5F4F0E9442
:1004D000F2000E94AC06A096E6E00C949A27A0E2F7
:1004E000B0E0E5E7F2E00C947E2769837A838B83A2
:1004F0009C832D833E834F835887F9E0EF2EF12CA8
:10050000EC0EFD1ECE010196B7010E9481078E01FF
:100510000F5E1F4FCE010596B8010E948107C701EB
:10052000B801AE01475E5F4F0E94F2000E94AC0628
:10053000A096E6E00C949A27A0E2B0E0E2EAF2E0AE
:100540000C94722769837A838B839C832D833E83EB
:100550004F835887CE010196BE01675F7F4F0E948F
:100560008107CE010596BE016F5E7F4F0E94810715
:100570009985923088F089898230C8F0943019F4D6
:10058000823051F404C0843029F4923081F486EE34
:1005900091E0C6C0923049F420E09A858A89981388
:1005A00021E02A87CE010996BBC0823049F420E0C1
:1005B0009A858A89981321E02A8BCE014196B0C092
:1005C0002D843E844F8458886D887E888F88988CCF
:1005D000EE24FF248701AA24BB24650140E050E0FB
:1005E00060E070E0E0E0F0E0C10181709070892B84
:1005F000E9F0E60CF71C081D191D9A01AB012A0D44
:100600003B1D4C1D5D1D80E090E0A0E0B0E0E614D5
:10061000F7040805190520F481E090E0A0E0B0E0BF
:10062000BA01A901480F591F6A1F7B1FAA0CBB1CE6
:10063000CC1CDD1C97FE08C081E090E0A0E0B0E09B
:10064000A82AB92ACA2ADB2A3196E032F10549F0F4
:10065000660C771C881C991C5694479437942794F1
:10066000C3CFFA85EA892B893C898B859C85280F25
:10067000391F2E5F3F4F17C0CA0181709070892BC0
:1006800061F016950795F794E79480E090E0A0E07C
:10069000B0E8E82AF92A0A2B1B2B7695679557951F
:1006A00047952F5F3F4F77FDE7CF0CC0440F551F95
:1006B000661F771F17FD4160EE0CFF1C001F111F06
:1006C00021503040403090E0590790E0690790E4B5
:1006D000790760F32B8F3C8FDB01CA018F77907015
:1006E000A070B07080349105A105B10561F447FD9B
:1006F0000AC0E114F1040105110529F0405C5F4FC7
:100700006F4F7F4F40781A8EFE1711F081E08A8F6D
:100710004D8F5E8F6F8F78A383E0898FCE014996CE
:100720000E94AC06A096E2E10C948E27A8E1B0E00E
:10073000ECE9F3E00C947A2769837A838B839C83BA
:100740002D833E834F835887B9E0EB2EF12CEC0EBE
:10075000FD1ECE010196B7010E9481078E010F5E3A
:100760001F4FCE010596B8010E94810729852230CE
:1007700008F47EC03989323010F4B8017CC08A8513
:100780009A8989278A87243011F0223031F423177F
:1007900009F06EC066EE71E06EC0343039F41D862B
:1007A0001E861F86188A1C861B8604C0323021F4E0
:1007B00084E08987B7015FC02B853C858B899C8944
:1007C000281B390B3C872B87ED84FE840F85188905
:1007D000AD88BE88CF88D88CEA14FB040C051D05B3
:1007E00040F4EE0CFF1C001F111F215030403C87CD
:1007F0002B8720E030E040E050E080E090E0A0E097
:10080000B0E460E070E0EA14FB040C051D0540F064
:10081000282B392B4A2B5B2BEA18FB080C091D09E6
:10082000B695A79597958795EE0CFF1C001F111F95
:100830006F5F7F4F6F31710531F7DA01C9018F7733
:100840009070A070B07080349105A105B10561F47D
:1008500027FD0AC0E114F1040105110529F0205C0F
:100860003F4F4F4F5F4F20782D873E874F87588BE4
:10087000BE01675F7F4FCB010E94AC066896EAE03D
:100880000C949627A8E1B0E0E8E4F4E00C947E270D
:1008900069837A838B839C832D833E834F83588720
:1008A00089E0E82EF12CEC0EFD1ECE010196B70179
:1008B0000E9481078E010F5E1F4FCE010596B80181
:1008C0000E9481078985823040F08989823028F032
:1008D000C701B8010E94F90701C081E06896E6E00F
:1008E0000C949A27A8E1B0E0E8E7F4E00C947E27A6
:1008F00069837A838B839C832D833E834F835887C0
:1009000089E0E82EF12CEC0EFD1ECE010196B70118
:100910000E9481078E010F5E1F4FCE010596B80120
:100920000E9481078985823040F08989823028F0D1
:10093000C701B8010E94F90701C08FEF6896E6E091
:100940000C949A27A8E1B0E0E8EAF4E00C947E2742
:1009500069837A838B839C832D833E834F8358875F
:1009600089E0E82EF12CEC0EFD1ECE010196B701B8
:100970000E9481078E010F5E1F4FCE010596B801C0
:100980000E9481078985823040F08989823028F071
:10099000C701B8010E94F90701C08FEF6896E6E031
:1009A0000C949A27A8E1B0E0E8EDF4E00C947E27DF
:1009B00069837A838B839C832D833E834F835887FF
:1009C00089E0E82EF12CEC0EFD1ECE010196B70158
:1009D0000E9481078E010F5E1F4FCE010596B80160
:1009E0000E9481078985823040F08989823028F011
:1009F000C701B8010E94F90701C081E06896E6E0EE
:100A00000C949A27A8E1B0E0E8E0F5E00C947E278A
:100A100069837A838B839C832D833E834F8358879E
:100A200089E0E82EF12CEC0EFD1ECE010196B701F7
:100A30000E9481078E010F5E1F4FCE010596B801FF
:100A40000E9481078985823040F08989823028F0B0
:100A5000C701B8010E94F90701C081E06896E6E08D
:100A60000C949A27A8E0B0E0E8E3F5E00C947B272B
:100A70009B01AC0183E08983DA01C9018827B7FDB6
:100A800083959927AA27BB27B82E21153105410543
:100A9000510519F482E089833AC08823A9F02030F7
:100AA00080E0380780E0480780E8580729F460E0D4
:100AB00070E080E09FEC30C0EE24FF248701E21A52
:100AC000F30A040B150B02C079018A018EE1C82ECE
:100AD000D12CDC82CB82ED82FE820F831887C80185
:100AE000B7010E945D0601971816190684F4082EB6
:100AF00004C0EE0CFF1C001F111F0A94D2F7ED82F8
:100B0000FE820F831887C81AD90ADC82CB82BA8288
:100B1000CE0101960E94AC062896E9E00C94972736
:100B2000ACE0B0E0E6E9F5E00C94822769837A83D3
:100B30008B839C83CE010196BE016B5F7F4F0E9429
:100B400081078D81823061F1823050F1843021F44F
:100B50008E81882351F12EC02F81388537FD20C02A
:100B60006E812F3131051CF06623F9F023C08EE130
:100B700090E0821B930B29853A854B855C8504C0E8
:100B800056954795379527958A95D2F76623B1F004
:100B900050954095309521953F4F4F4F5F4F0EC078
:100BA00020E030E040E050E009C02FEF3FEF4FEF92
:100BB0005FE704C020E030E040E050E8B901CA013E
:100BC0002C96E2E00C949E27A8E0B0E0EAEEF5E077
:100BD0000C947A277B018C016115710581059105C3
:100BE00019F482E0898360C083E089838EE1C82E96
:100BF000D12CDC82CB82ED82FE820F831887C80164
:100C0000B7010E945D06FC013197F7FF3BC0222728
:100C100033272E1B3F0B57016801022E04C0D694C8
:100C2000C794B794A7940A94D2F740E050E060E0EC
:100C300070E081E090E0A0E0B0E004C0880F991F70
:100C4000AA1FBB1F2A95D2F70197A109B1098E21CE
:100C50009F21A023B1230097A105B10521F041E018
:100C600050E060E070E04A295B296C297D294D83C2
:100C70005E836F8378878EE190E08E1B9F0B9C8351
:100C80008B8312C0309781F00E2E04C0EE0CFF1C37
:100C9000001F111F0A94D2F7ED82FE820F8318877E
:100CA000CE1ADF0ADC82CB821A82CE0101960E9424
:100CB000AC062896EAE00C949627EF92FF920F93E9
:100CC0001F937B018C0180E0E81680E0F80681E04C
:100CD000080780E0180788F48FEFE816F104010593
:100CE000110531F028F088E090E0A0E0B0E017C0F6
:100CF00080E090E0A0E0B0E012C080E0E81680E084
:100D0000F80680E0080781E0180728F088E190E005
:100D1000A0E0B0E004C080E190E0A0E0B0E020E21C
:100D200030E040E050E0281B390B4A0B5B0B04C05D
:100D300016950795F794E7948A95D2F7F701E25153
:100D4000FE4F8081281B310941095109C9011F91BA
:100D50000F91FF90EF900895DF92EF92FF920F9323
:100D60001F93FC01E480F58006811781D18080818A
:100D7000823048F480E090E0A0E1B0E0E82AF92A6F
:100D80000A2B1B2BA5C0843009F49FC0823021F4AC
:100D9000EE24FF24870105C0E114F10401051105CB
:100DA00019F4E0E0F0E096C0628173819FEF623851
:100DB00079070CF05BC022E83FEF261B370B2A3186
:100DC00031052CF020E030E040E050E02AC0B801CE
:100DD000A701022E04C076956795579547950A940A
:100DE000D2F781E090E0A0E0B0E004C0880F991F46
:100DF000AA1FBB1F2A95D2F70197A109B1098E211D
:100E00009F21A023B1230097A105B10521F081E026
:100E100090E0A0E0B0E09A01AB01282B392B4A2BDF
:100E20005B2BDA01C9018F779070A070B0708034AD
:100E30009105A105B10539F427FF09C0205C3F4F9A
:100E40004F4F5F4F04C0215C3F4F4F4F5F4FE0E07B
:100E5000F0E02030A0E03A07A0E04A07A0E45A07FB
:100E600010F0E1E0F0E079018A0127C060387105F7
:100E700064F5FB01E158FF4FD801C7018F779070EF
:100E8000A070B07080349105A105B10539F4E7FE7A
:100E90000DC080E490E0A0E0B0E004C08FE390E0FB
:100EA000A0E0B0E0E80EF91E0A1F1B1F17FF05C0E7
:100EB00016950795F794E794319687E01695079570
:100EC000F794E7948A95D1F705C0EE24FF248701B3
:100ED000EFEFF0E06E2F679566276795902F9F776D
:100EE000D794DD24D7948E2F8695492F462B582FE3
:100EF0005D29B701CA011F910F91FF90EF90DF901C
:100F00000895FC01DB01408151812281622F6F77BE
:100F100070E0221F2227221F9381892F880F822BA6
:100F2000282F30E0991F9927991F11969C931197AC
:100F300021153105A9F5411551056105710511F41A
:100F400082E037C082E89FEF13969C938E931297AE
:100F50009A01AB0167E0220F331F441F551F6A95AA
:100F6000D1F783E08C930DC0220F331F441F551F10
:100F700012968D919C911397019713969C938E9343
:100F80001297203080E0380780E0480780E4580757
:100F900058F314962D933D934D935C9317970895B2
:100FA0002F3F310579F4411551056105710519F49B
:100FB00084E08C93089564FF03C081E08C9312C099
:100FC0001C9210C02F57304013963C932E931297CB
:100FD00083E08C9387E0440F551F661F771F8A9527
:100FE000D1F7706414964D935D936D937C9317972E
:100FF00008951F93DC01FB019C91923008F447C0D7
:101000008081823008F443C0943051F411961C91D1
:10101000843099F58181682F70E0611B71093FC0B0
:10102000843021F0923031F48230B9F1818188230B
:1010300089F12DC011961C9111978230F1F08181B8
:101040001817D9F412962D913C91139782819381B0
:101050008217930794F028173907BCF014968D91E6
:101060009D910D90BC91A02D2481358146815781A1
:10107000281739074A075B0718F4112341F00AC003
:1010800082179307A407B50740F4112319F061E014
:1010900070E005C06FEF7FEF02C060E070E0CB0151
:1010A0001F910895DF93CF9300D000D0CDB7DEB766
:1010B0009A838983E981FA818081282F30E03C83FB
:1010C0002B838B819C8181309105C1F02B813C81E8
:1010D0002330310511F18B819C81009761F5A7E2E6
:1010E000B0E0E7E2F0E080818F7B8C93A7E2B0E094
:1010F000E7E2F0E080818F778C931DC0A7E2B0E03B
:10110000E7E2F0E0808180648C93A7E2B0E0E7E260
:10111000F0E080818F778C930EC0A7E2B0E0E7E229
:10112000F0E0808180648C93A7E2B0E0E7E2F0E039
:10113000808180688C93A6E2B0E0E6E2F0E08081F6
:1011400080688C93A6E2B0E0E6E2F0E08081982F20
:10115000987FE981FA8181818770892B8C930F9028
:101160000F900F900F90CF91DF910895DF93CF9361
:10117000CDB7DEB7E7E2F0E01082E6E2F0E0108201
:10118000CF91DF910895DF93CF930F92CDB7DEB764
:101190008983A7E2B0E0E7E2F0E08081982F907FBA
:1011A00089818F71892B8C93A6E2B0E0E6E2F0E0B2
:1011B000808180648C93E6E2F0E0808182958F707C
:1011C000882F90E0817090700097A9F3A6E2B0E0BC
:1011D000E6E2F0E0808180618C93E4E2F0E08081DF
:1011E00091810F90CF91DF910895DF93CF93CDB789
:1011F000DEB70E94181D0E94731B8AEF92E00E94C6
:10120000520883E06FEF0E94A51A80E067E040E09B
:101210000E94391881E064E041E00E943918CF91C2
:10122000DF910895DF93CF93CDB7DEB76F970FB6F9
:10123000F894DEBF0FBECDBF8D8F81E064E041E04A
:101240000E94331980E090E0A8ECB2E4898F9A8F75
:10125000AB8FBC8F698D7A8D8B8D9C8D20E030E0BB
:101260004AE753E40E949C02DC01CB018D8B9E8BEC
:10127000AF8BB88F6D897E898F89988D20E030E0A3
:1012800040E85FE30E94D20488232CF481E090E0E0
:101290009C8B8B8B3FC06D897E898F89988D20E0D8
:1012A0003FEF4FE757E40E94720418164CF5698D22
:1012B0007A8D8B8D9C8D20E030E040E251E40E94DD
:1012C0009C02DC01CB01BC01CD010E94C600DC0107
:1012D000CB019C8B8B8B0FC089E190E09A8B898B23
:1012E00089899A890197F1F79A8B898B8B899C89D7
:1012F00001979C8B8B8B8B899C89009769F714C015
:101300006D897E898F89988D0E94C600DC01CB0192
:101310009C8B8B8B8B899C89988B8F878F859889E9
:101320000197F1F7988B8F8781E064E040E00E949D
:1013300033198D8D282F30E03F8F2E8F8E8D9F8D0E
:101340008730910509F47AC12E8D3F8D2830310503
:101350002CF58E8D9F8D8330910509F46FC02E8DF5
:101360003F8D243031056CF48E8D9F8D8130910539
:1013700009F4A4C02E8D3F8D2230310509F47EC0C2
:1013800083C18E8D9F8D8530910509F4D7C02E8D38
:101390003F8D263031050CF0B1C0F0C08E8D9F8D91
:1013A0008D30910559F12E8D3F8D2E3031059CF4F5
:1013B0008E8D9F8D8930910509F400C12E8D3F8D52
:1013C000293031050CF41AC18E8D9F8D8C3091051A
:1013D00009F457C159C12E8D3F8D2F30310509F4C5
:1013E000EDC08E8D9F8D8F3091050CF487C02E8DB2
:1013F0003F8D2031310509F441C146C180E690E0BE
:101400000E946E2683E08093FC0280E090E0A0EAD8
:10141000B1E48093FD029093FE02A093FF02B0938B
:10142000000380E090E0A8E4B3E48093010390938C
:101430000203A0930303B093040326C18FE690E058
:101440000E946E2685E08093FC0280E090E0A0E898
:10145000B0E48093FD029093FE02A093FF02B0934C
:10146000000380E090E0A0EAB1E480930103909350
:101470000203A0930303B093040306C18EE790E038
:101480000E946E2688E08093FC028DEC9CECACE41C
:10149000BFE38093FD029093FE02A093FF02B093FE
:1014A000000380E090E0A0E8B0E480930103909313
:1014B0000203A0930303B0930403E6C08DE890E019
:1014C0000E946E268CE08093FC0280E090E0A0E811
:1014D000BFE38093FD029093FE02A093FF02B093BE
:1014E000000380E090E0A8E4B4E4809301039093CB
:1014F0000203A0930303B0930403C6C08CE990E0F9
:101500000E946E268CE48093FC028DEC9CECACE493
:10151000BDE38093FD029093FE02A093FF02B0937F
:10152000000380E090E0A0E8BFE380930103909384
:101530000203A0930303B0930403A6C08BEA90E0D8
:101540000E946E268CEC8093FC028AE097EDA3E269
:10155000BCE38093FD029093FE02A093FF02B09340
:1015600000038DEC9CECACE4BDE38093010390930D
:101570000203A0930303B093040386C08AEB90E0B8
:101580000E946E268CED8093FC028FE692E1A3E828
:10159000BAE38093FD029093FE02A093FF02B09302
:1015A00000038AE097EDA3E2BCE3809301039093EC
:1015B0000203A0930303B093040366C089EC90E098
:1015C0000E946E2688E38093FC0280E090E5A3E40D
:1015D000B7E48093FD029093FE02A093FF02B093C4
:1015E000000380E09BE1A7E3BAE4809301039093BA
:1015F0000203A0930303B093040346C088ED90E078
:101600000E946E2684E38093FC0280E090E0AAE7CB
:10161000B4E48093FD029093FE02A093FF02B09386
:10162000000380E090E5A3E4B7E480930103909386
:101630000203A0930303B093040326C088EE90E056
:101640000E946E2680E38093FC0280E090E0A8EC8C
:10165000B3E48093FD029093FE02A093FF02B09347
:10166000000380E090E0AAE7B4E480930103909344
:101670000203A0930303B093040306C010920D036A
:1016800003C081E080930D039091FC0283E0692FF9
:101690000E94E91A80E090E0A8ECB2E48B879C8776
:1016A000AD87BE876B857C858D859E8520E030E08B
:1016B0004AE753E40E949C02DC01CB018F839887A8
:1016C000A987BA876F81788589859A8520E030E07F
:1016D00040E85FE30E94D20488232CF481E090E08C
:1016E0009E838D833FC06F81788589859A8520E0B0
:1016F0003FEF4FE757E40E94720418164CF56B85D4
:101700007C858D859E8520E030E040E251E40E949A
:101710009C02DC01CB01BC01CD010E94C600DC01B2
:10172000CB019E838D830FC089E190E09C838B83E6
:101730008B819C810197F1F79C838B838D819E81A6
:1017400001979E838D838D819E81009769F714C0D8
:101750006F81788589859A850E94C600DC01CB015E
:101760009E838D838D819E819A83898389819A81CD
:101770000197F1F79A8389838091FC02803341F0CD
:101780008091FC02843321F08091FC02883329F49B
:1017900088EF90E00E946E2615C080910D03813085
:1017A00049F480E06EE00E94972682E091E00E947A
:1017B0006E2608C080E06EE00E9497268CE091E0E3
:1017C0000E946E266F960FB6F894DEBF0FBECDBF97
:1017D000CF91DF910895EF92FF920F931F93DF93C4
:1017E000CF93CDB7DEB7A7970FB6F894DEBF0FBE85
:1017F000CDBF80E067E00E941E1A882319F02FEF0A
:101800002FA302C031E03FA38FA18093EE0280910D
:10181000FC02A82FB0E0BEA3ADA32DA13EA12033B2
:10182000310509F4E2C68DA19EA18133910524F50D
:10183000ADA1BEA1A830B10509F41BC12DA13EA1E7
:101840002930310564F48DA19EA183309105C9F141
:10185000ADA1BEA1A530B10509F49FC092C72DA1CD
:101860003EA12C30310509F4ABC18DA19EA18C3174
:10187000910509F4BDC285C7ADA1BEA1AC34B105C7
:1018800009F4DEC32DA13EA12D3431056CF48DA1E8
:101890009EA18433910509F40CC6ADA1BEA1A83365
:1018A000B10509F46AC56DC72DA13EA12C3C3105D7
:1018B00009F46DC48DA19EA18C3D910509F4E2C48B
:1018C00060C780910D03882379F080E090E0A8E460
:1018D000B2E48093EF029093F002A093F102B093F0
:1018E000F2020E940E1747C080E00E94C308CC019C
:1018F000A0E0B0E0BC01CD010E94E405DC01CB0119
:10190000BC01CD0120E030E040EA50E40E949C029E
:10191000DC01CB01BC01CD0120E030E040E854E423
:101920000E949603DC01CB01BC01CD0120E030E038
:1019300048E452E40E949C02DC01CB017C018D0151
:101940008091EE02992787FD9095A92FB92FBC01B0
:10195000CD010E9432059B01AC01C801B7010E9474
:101960009C02DC01CB018093050390930603A093B6
:101970000703B09308038091050390910603A0919B
:101980000703B0910803BC01CD0143E00E9420276A
:1019900086E191E00E946E26F4C680910D038823B3
:1019A00079F080E090E0A0EAB0E48093EF029093B9
:1019B000F002A093F102B093F2020E940E1747C00A
:1019C00080E00E94C308CC01A0E0B0E0BC01CD01E2
:1019D0000E94E405DC01CB01BC01CD0120E030E038
:1019E00040EA50E40E949C02DC01CB01BC01CD0125
:1019F00020E030E040E854E40E949603DC01CB0193
:101A0000BC01CD0120E030E040EA50E40E949C029D
:101A1000DC01CB017C018D018091EE02992787FDCD
:101A20009095A92FB92FBC01CD010E9432059B01D1
:101A3000AC01C801B7010E949C02DC01CB0180937C
:101A4000050390930603A0930703B09308038091C6
:101A5000050390910603A0910703B0910803BC0110
:101A6000CD0143E00E94202786E191E00E946E268E
:101A700088C680910D03882379F080E090E0A0E88B
:101A8000BFE38093EF029093F002A093F102B09332
:101A9000F2020E940E1742C080E00E94C308CC01EF
:101AA000A0E0B0E0BC01CD010E94E405DC01CB0167
:101AB000BC01CD0120E030E040EA50E40E949C02ED
:101AC000DC01CB01BC01CD0120E030E040E854E472
:101AD0000E949603DC01CB017C018D018091EE0216
:101AE000992787FD9095909581959F4FAA2797FDFF
:101AF000A095BA2FBC01CD010E9432059B01AC011B
:101B0000C801B7010E949C02DC01CB018093050350
:101B100090930603A0930703B093080380910503F5
:101B200090910603A0910703B0910803BC01CD0179
:101B300020E030E040E85FE30E94A204882394F4B0
:101B40008091050390910603A0910703B0910803CB
:101B5000BC01CD0120E030E040E85FEB0E940205CF
:101B6000181694F08091050390910603A091070345
:101B7000B0910803BC01CD0143E00E94202786E11B
:101B800091E00E946E26FDC58091050390910603A9
:101B9000A0910703B0910803BC01CD0120E030E023
:101BA0004AE754E40E949C02DC01CB01BC01CD0158
:101BB00043E00E94202782E291E00E946E26E1C568
:101BC00080E06CE00E94972685E090E00E94FD2670
:101BD00081E060E00E94972680910D03882379F0D0
:101BE00080E090E0A8E4B3E48093EF029093F002E9
:101BF000A093F102B093F2020E940E1747C080E05A
:101C00000E94C308CC01A0E0B0E0BC01CD010E945D
:101C1000E405DC01CB01BC01CD0120E030E040EA6D
:101C200050E40E949C02DC01CB01BC01CD0120E00C
:101C300030E040E854E40E949603DC01CB01BC0193
:101C4000CD0120E030E048E453EC0E949C02DC012E
:101C5000CB017C018D018091EE02992787FD909543
:101C6000A92FB92FBC01CD010E9432059B01AC0107
:101C7000C801B7010E949C02DC01CB0180930503DF
:101C800090930603A0930703B09308038091050384
:101C900090910603A0910703B0910803BC01CD0108
:101CA00020E030E048E453E40E94A204882394F446
:101CB0008091050390910603A0910703B09108035A
:101CC000BC01CD0120E030E048E453EC0E94020565
:101CD000181694F08091050390910603A0910703D4
:101CE000B0910803BC01CD0143E00E9420278FE2A0
:101CF00091E00E946E2645C58CE18093FC02909194
:101D0000FC0283E0692F0E94E91A80E090E0A8E4D9
:101D1000B3E4898F9A8FAB8FBC8F698D7A8D8B8D51
:101D20009C8D20E030E04AE753E40E949C02DC01F5
:101D3000CB018D8B9E8BAF8BB88F6D897E898F8900
:101D4000988D20E030E040E85FE30E94D2048823D1
:101D50002CF481E090E09C8B8B8B3FC06D897E8959
:101D60008F89988D20E03FEF4FE757E40E9472047F
:101D700018164CF5698D7A8D8B8D9C8D20E030E0A6
:101D800040E251E40E949C02DC01CB01BC01CD0188
:101D90000E94C600DC01CB019C8B8B8B0FC089E1BC
:101DA00090E09A8B898B89899A890197F1F79A8BB0
:101DB000898B8B899C8901979C8B8B8B8B899C89C8
:101DC000009769F7DEC46D897E898F89988D0E949E
:101DD000C600DC01CB019C8B8B8B8B899C89988BFB
:101DE0008F878F8598890197F1F7988B8F87C9C462
:101DF00080E06CE00E94972684E190E00E94FD263E
:101E000081E060E00E94972680910D03882379F09D
:101E100080E090E0A8E4B2E48093EF029093F002B7
:101E2000A093F102B093F2020E940E1747C080E027
:101E30000E94C308CC01A0E0B0E0BC01CD010E942B
:101E4000E405DC01CB01BC01CD0120E030E040EA3B
:101E500050E40E949C02DC01CB01BC01CD0120E0DA
:101E600030E040E854E40E949603DC01CB01BC0161
:101E7000CD0120E030E048E452EC0E949C02DC01FD
:101E8000CB017C018D018091EE02992787FD909511
:101E9000A92FB92FBC01CD010E9432059B01AC01D5
:101EA000C801B7010E949C02DC01CB0180930503AD
:101EB00090930603A0930703B09308038091050352
:101EC00090910603A0910703B09108031CA2BC01E6
:101ED000CD0120E030E048E453E40E94D20488239E
:101EE00014F491E09CA381E0ACA18A27882361F5DA
:101EF0008091050390910603A0910703B091080318
:101F00001BA2BC01CD0120E030E048E453EC0E946C
:101F10007204181614F4B1E0BBA381E02BA1822750
:101F2000882391F48091050390910603A091070303
:101F3000B0910803BC01CD0143E00E9420278FE24D
:101F400091E00E946E261DC48CE08093FC0290916B
:101F5000FC0283E0692F0E94E91A80E090E0A8E487
:101F6000B3E48B879C87AD87BE876B857C858D8529
:101F70009E8520E030E04AE753E40E949C02DC01A9
:101F8000CB018F839887A987BA876F8178858985E8
:101F90009A8520E030E040E85FE30E94D204882385
:101FA0002CF481E090E09E838D833FC06F81788523
:101FB00089859A8520E03FEF4FE757E40E9472043D
:101FC00018164CF56B857C858D859E8520E030E06C
:101FD00040E251E40E949C02DC01CB01BC01CD0136
:101FE0000E94C600DC01CB019E838D830FC089E176
:101FF00090E09C838B838B819C810197F1F79C837C
:102000008B838D819E8101979E838D838D819E819F
:10201000009769F7B6C36F81788589859A850E9494
:10202000C600DC01CB019E838D838D819E819A83C6
:10203000898389819A810197F1F79A838983A1C362
:1020400080910D03882379F080E090E0A0E8BFE361
:102050008093EF029093F002A093F102B093F2020A
:102060000E940E1742C080E00E94C308CC01A0E08D
:10207000B0E0BC01CD010E94E405DC01CB01BC0154
:10208000CD0120E030E040EA50E40E949C02DC01F7
:10209000CB01BC01CD0120E030E040E854E40E94D7
:1020A0009603DC01CB017C018D018091EE02992722
:1020B00087FD9095909581959F4FAA2797FDA095B4
:1020C000BA2FBC01CD010E9432059B01AC01C801B1
:1020D000B7010E949C02DC01CB0180930503909321
:1020E0000603A0930703B093080380910503909122
:1020F0000603A0910703B0910803BC01CD0120E0C5
:1021000030E040E85FE30E94A204882394F48091C9
:10211000050390910603A0910703B0910803BC0149
:10212000CD0120E030E040E85FEB0E940205181688
:1021300094F08091050390910603A0910703B0915C
:102140000803BC01CD0143E00E9420278BE391E00E
:102150000E946E2616C38091050390910603A091FC
:102160000703B0910803BC01CD0120E030E04AE74D
:1021700054E40E949C02DC01CB01BC01CD0143E090
:102180000E94202787E491E00E946E26FAC2809187
:102190000D03882379F08AE097EDA3EABCE38093EE
:1021A000EF029093F002A093F102B093F2020E942A
:1021B0000E174CC080E00E94C308CC01A0E0B0E044
:1021C000BC01CD010E94E405DC01CB01BC01CD01C5
:1021D00020E030E040EA50E40E949C02DC01CB01A8
:1021E000BC01CD0120E030E040E854E40E949603B9
:1021F000DC01CB01BC01CD012AE037ED43EA5CE311
:102200000E949C02DC01CB017C018D018091EE02D9
:10221000992787FD9095909581959F4FAA2797FDC7
:10222000A095BA2FBC01CD010E9432059B01AC01E3
:10223000C801B7010E949C02DC01CB018093050319
:1022400090930603A0930703B093080380910503BE
:1022500090910603A0910703B0910803BC01CD0142
:1022600020E030E04AE754E40E949C02DC01CB010C
:10227000BC01CD0143E00E94202787E491E00E9449
:102280006E267FC280910D03882379F08AE097ED56
:10229000A3EABBE38093EF029093F002A093F102D4
:1022A000B093F2020E940E174CC080E00E94C30857
:1022B000CC01A0E0B0E0BC01CD010E94E405DC014E
:1022C000CB01BC01CD0120E030E040EA50E40E94A7
:1022D0009C02DC01CB01BC01CD0120E030E040E8F4
:1022E00054E40E949603DC01CB01BC01CD012AE03D
:1022F00037ED43EA5BE30E949C02DC01CB017C01E9
:102300008D018091EE02992787FD9095909581959A
:102310009F4FAA2797FDA095BA2FBC01CD010E941F
:1023200032059B01AC01C801B7010E949C02DC018F
:10233000CB018093050390930603A0930703B0930A
:1023400008038091050390910603A0910703B091C3
:102350000803BC01CD0120E030E04AE754E40E94CC
:102360009C02DC01CB01BC01CD0143E00E9420278F
:1023700087E491E00E946E2604C280E00E94C308B8
:10238000CC01A0E0B0E0BC01CD010E94E405DC017D
:10239000CB01BC01CD0120E030E040EA50E40E94D6
:1023A0009C02DC01CB01BC01CD0120E030E040E823
:1023B00054E40E949603DC01CB01809305039093C3
:1023C0000603A0930703B09308038091050390913F
:1023D0000603A0910703B0910803BC01CD0120E4DE
:1023E00039E845E659E40E949C02DC01CB017C01FE
:1023F0008D01209105033091060340910703509110
:10240000080366E676E68EE990E40E943E02DC016F
:10241000CB019C01AD01C801B7010E949603DC010C
:10242000CB018093050390930603A0930703B09319
:1024300008038091050390910603A0910703B091D2
:102440000803BC01CD0120E635EE40E85FE30E94C1
:102450009C02DC01CB01BC01CD0120E03CE94FE94D
:1024600056E40E946F02DC01CB0180930503909338
:102470000603A0930703B09308038091050390918E
:102480000603A0910703B0910803BC01CD0120E031
:1024900030E04AE754E40E949603DC01CB01BC0122
:1024A000CD0142E00E94202784E591E00E946E2643
:1024B00068C180E00E94C308CC01A0E0B0E0BC018C
:1024C000CD010E94E405DC01CB01BC01CD0120E07F
:1024D00030E040EA50E40E949C02DC01CB01BC01E8
:1024E000CD0120E030E040E854E40E949603DC0196
:1024F000CB018093050390930603A0930703B09349
:1025000008038091050390910603A0910703B09101
:102510000803BC01CD0120E038E54EE856E40E94F6
:102520009C02DC01CB017C018D01209105033091DF
:102530000603409107035091080366E676E68EE9AC
:1025400090E40E943E02DC01CB019C01AD01C80178
:10255000B7010E949603DC01CB01809305039093A1
:102560000603A0930703B09308038091050390919D
:102570000603A0910703B0910803BC01CD0122EB33
:102580003DE94FE75FE30E949C02DC01CB01BC0107
:10259000CD0120E030E24CE054E40E946F02DC0107
:1025A000CB018093050390930603A0930703B09398
:1025B00008038091050390910603A0910703B09151
:1025C0000803BC01CD0120E030E04AE754E40E945A
:1025D0009603DC01CB01BC01CD0142E00E94202723
:1025E00084E591E00E946E26CCC080E00E94C30882
:1025F000CC01A0E0B0E0BC01CD010E94E405DC010B
:10260000CB01BC01CD0120E030E040EA50E40E9463
:102610009C02DC01CB01BC01CD0120E030E040E8B0
:1026200054E40E949603DC01CB0180930503909350
:102630000603A0930703B0930803809105039091CC
:102640000603A0910703B0910803BC01CD0120E06F
:1026500030E04FE254E40E949C02DC01CB017C019B
:102660008D0120910503309106034091070350919D
:10267000080366E676E68EE990E40E943E02DC01FD
:10268000CB019C01AD01C801B7010E949603DC019A
:10269000CB018093050390930603A0930703B093A7
:1026A00008038091050390910603A0910703B09160
:1026B0000803BC01CD0120E030E048EC53E40E9467
:1026C000720418160CF58091050390910603A091F1
:1026D0000703B0910803BC01CD0124E237E94FE6BE
:1026E0005FE30E949C02DC01CB01BC01CD012BE722
:1026F00034E149E352E40E946F02DC01CB018F8F89
:1027000098A3A9A3BAA320C08091050390910603C2
:10271000A0910703B0910803BC01CD0124EB38EC74
:1027200046E75FE30E949C02DC01CB01BC01CD01C6
:1027300026E636E64EE851E40E946F02DC01CB014A
:102740008F8F98A3A9A3BAA38F8D98A1A9A1BAA18D
:102750008093050390930603A0930703B0930803A7
:102760008091050390910603A0910703B09108039F
:10277000BC01CD0142E00E94202784E691E00E9446
:102780006E2681E06FE00E9497268091050390916C
:102790000603A0910703B0910803BC01CD0120E01E
:1027A00030E040E050E00E944204882309F46AC00F
:1027B0008091050390910603A0910703B09108034F
:1027C0002091FD023091FE024091FF0250910003E2
:1027D0001E8EBC01CD010E94A204882314F091E05A
:1027E0009E8F81E0AE8D8A278823B1F48091050306
:1027F00090910603A0910703B09108032091010373
:10280000309102034091030350910403BC01CD01B8
:102810000E9402051816B4F58091FD029091FE0207
:10282000A091FF02B0910003B058209105033091B0
:10283000060340910703509108031D8EBC01CD0192
:102840000E94A204882314F0B1E0BD8F81E02D8D99
:1028500082278823D9F48091010390910203A091EB
:102860000303B0910403B05820910503309106038F
:102870004091070350910803BC01CD010E9402055D
:10288000181624F080E20E941C2203C088E50E94F2
:102890001C22A7960FB6F894DEBF0FBECDBFCF9116
:1028A000DF911F910F91FF90EF9008950F931F9369
:1028B000DF93CF93CDB7DEB72A970FB6F894DEBF7C
:1028C0000FBECDBF198287E0FE013396DF01982F3E
:1028D0001D929A95E9F71A824CC08A81082F10E060
:1028E0000E94B61B282FCE010396FC01E00FF11FBA
:1028F00020830CC08A81082F10E00E94B61B282F6D
:10290000CE010396FC01E00FF11F20838A81282F5E
:1029100030E0CE010396FC01E20FF31F8081823389
:1029200049F38A81282F30E0CE010396FC01E20FA3
:10293000F31F10810E94B61B181799F38AE20E94B8
:102940001C228A81282F30E0CE010396FC01E20F81
:10295000F31F20818A81882F90E0FC01ED50FD4F0C
:102960008081281719F489818F5F89838A818F5F1D
:102970008A838A81873008F4B0CF8981873019F43F
:10298000A1E0AA8701C01A868A852A960FB6F89414
:10299000DEBF0FBECDBFCF91DF911F910F91089584
:1029A000DF93CF93CDB7DEB7EA970FB6F894DEBFCB
:1029B0000FBECDBF1AAE83E089AF81E080930E03D6
:1029C00024E731E080E063E0A9010E94DA2680E09C
:1029D00090E0AAE7B4E48DAB9EABAFABB8AF6DA906
:1029E0007EA98FA998AD20E030E04AE753E40E9429
:1029F0009C02DC01CB0189AB9AABABABBCAB69A948
:102A00007AA98BA99CA920E030E040E85FE30E940E
:102A1000D20488232CF481E090E098AB8FA73FC0CC
:102A200069A97AA98BA99CA920E03FEF4FE757E459
:102A30000E94720418164CF56DA97EA98FA998AD55
:102A400020E030E040E251E40E949C02DC01CB0136
:102A5000BC01CD010E94C600DC01CB0198AB8FA761
:102A60000FC089E190E09EA78DA78DA59EA5019737
:102A7000F1F79EA78DA78FA598A9019798AB8FA76F
:102A80008FA598A9009769F7BCC169A97AA98BA9F4
:102A90009CA90E94C600DC01CB0198AB8FA78FA533
:102AA00098A99CA78BA78BA59CA50197F1F79CA73C
:102AB0008BA7A7C189AD882309F426C10E94F326FC
:102AC0002EE731E080E060E0A9010E94DA2681E093
:102AD00060E00E9497260E9456148AAF8AAD81302A
:102AE00009F083C00E94F3262FE831E080E061E026
:102AF000A9010E94DA262EE931E081E063E0A90114
:102B00000E94DA2680E090E0AAEFB4E48FA398A7B1
:102B1000A9A7BAA76FA178A589A59AA520E030E05A
:102B20004AE753E40E949C02DC01CB018BA39CA3E7
:102B3000ADA3BEA36BA17CA18DA19EA120E030E03E
:102B400040E85FE30E94D20488232CF481E090E007
:102B50009AA389A33FC06BA17CA18DA19EA120E077
:102B60003FEF4FE757E40E94720418164CF56FA12F
:102B700078A589A59AA520E030E040E251E40E94C2
:102B80009C02DC01CB01BC01CD010E94C600DC012E
:102B9000CB019AA389A30FC089E190E098A38F8FFE
:102BA0008F8D98A10197F1F798A38F8F89A19AA192
:102BB00001979AA389A389A19AA1009769F725C1D2
:102BC0006BA17CA18DA19EA10E94C600DC01CB015E
:102BD0009AA389A389A19AA19E8F8D8F8D8D9E8D99
:102BE0000197F1F79E8F8D8F10C18AAD882309F070
:102BF00008C189AD815089AF0E94F3262AEA31E0ED
:102C000080E061E0A9010E94DA2629EB31E081E051
:102C100061E0A9010E94DA2689AD882F90E00E9428
:102C2000FD2680E090E0AAEFB3E4898F9A8FAB8F06
:102C3000BC8F698D7A8D8B8D9C8D20E030E04AE7CA
:102C400053E40E949C02DC01CB018D8B9E8BAF8BE9
:102C5000B88F6D897E898F89988D20E030E040E8BB
:102C60005FE30E94D20488232CF481E090E09C8BE7
:102C70008B8B3FC06D897E898F89988D20E03FEFD7
:102C80004FE757E40E94720418164CF5698D7A8D4F
:102C90008B8D9C8D20E030E040E251E40E949C024C
:102CA000DC01CB01BC01CD010E94C600DC01CB01DF
:102CB0009C8B8B8B0FC089E190E09A8B898B8989E3
:102CC0009A890197F1F79A8B898B8B899C89019757
:102CD0009C8B8B8B8B899C89009769F792C06D893F
:102CE0007E898F89988D0E94C600DC01CB019C8B68
:102CF0008B8B8B899C89988B8F878F85988901977F
:102D0000F1F7988B8F877DC083E089AF0E94F3260F
:102D100028EC31E080E061E0A9010E94DA2680E041
:102D200090E4ACE9B5E48B879C87AD87BE876B8563
:102D30007C858D859E8520E030E04AE753E40E9443
:102D40009C02DC01CB018F839887A987BA876F81AA
:102D5000788589859A8520E030E040E85FE30E942D
:102D6000D20488232CF481E090E09E838D833FC0C1
:102D70006F81788589859A8520E03FEF4FE757E49A
:102D80000E94720418164CF56B857C858D859E8596
:102D900020E030E040E251E40E949C02DC01CB01E3
:102DA000BC01CD010E94C600DC01CB019E838D8356
:102DB0000FC089E190E09C838B838B819C8101977C
:102DC000F1F79C838B838D819E8101979E838D83F8
:102DD0008D819E81009769F714C06F817885898500
:102DE0009A850E94C600DC01CB019E838D838D8174
:102DF0009E819A83898389819A810197F1F79A83C9
:102E000089838AAD813009F055CEEA960FB6F894E1
:102E1000DEBF0FBECDBFCF91DF910895DF93CF937B
:102E2000CDB7DEB763970FB6F894DEBF0FBECDBF48
:102E300080E090E0A0E0B0E08093090390930A0363
:102E4000A0930B03B0930C0381E063E040E00E9489
:102E500033191F867AC080E00E94C308CC01A0E02D
:102E6000B0E0BC01CD010E94E405DC01CB01BC0156
:102E7000CD0120E030E040EA50E40E949C02DC01F9
:102E8000CB01BC01CD0120E030E040E854E40E94D9
:102E90009603DC01CB012091EF023091F0024091CA
:102EA000F1025091F202BC01CD010E949C02DC01B2
:102EB000CB018093050390930603A0930703B0937F
:102EC00008038091090390910A03A0910B03B0912C
:102ED0000C032091050330910603409107035091A4
:102EE0000803BC01CD010E94D20488236CF48091B8
:102EF000050390910603A0910703B0910803888B06
:102F0000998BAA8BBB8B0CC08091090390910A030B
:102F1000A0910B03B0910C03888B998BAA8BBB8B70
:102F200088899989AA89BB898093090390930A03A8
:102F3000A0930B03B0930C0380E066E00E941E1A7E
:102F4000882339F08F858F5F8F878F85883C08F4C1
:102F500082CF81E063E041E00E94331980E090E09D
:102F6000A0EAB0E48B879C87AD87BE876B857C85A4
:102F70008D859E8520E030E04AE753E40E949C0264
:102F8000DC01CB018F839887A987BA876F81788509
:102F900089859A8520E030E040E85FE30E94D20412
:102FA00088232CF481E090E09E838D833FC06F8165
:102FB000788589859A8520E03FEF4FE757E40E94A6
:102FC000720418164CF56B857C858D859E8520E0F6
:102FD00030E040E251E40E949C02DC01CB01BC01E4
:102FE000CD010E94C600DC01CB019E838D830FC002
:102FF00089E190E09C838B838B819C810197F1F721
:103000009C838B838D819E8101979E838D838D818F
:103010009E81009769F714C06F81788589859A85AC
:103020000E94C600DC01CB019E838D838D819E8131
:103030009A83898389819A810197F1F79A83898399
:103040008091090390910A03A0910B03B0910C03A6
:103050008093050390930603A0930703B09308039E
:1030600063960FB6F894DEBF0FBECDBFCF91DF9150
:103070000895DF93CF9300D000D00F92CDB7DEB785
:1030800089836A834B838981843008F0E4C08A8114
:10309000883008F0E0C08981282F30E03D832C8300
:1030A0008C819D818130910509F447C02C813D813F
:1030B000223031052CF48C819D81009771F0CBC0BA
:1030C0002C813D812230310509F467C08C819D81BE
:1030D0008330910509F491C0BEC08B818130A1F489
:1030E000AAE3B0E0EAE3F0E08081482F8A81282F4C
:1030F00030E081E090E0022E02C0880F991F0A9410
:10310000E2F7842B8C93A7C08B81882309F0A3C09E
:10311000AAE3B0E0EAE3F0E08081482F8A81282F1B
:1031200030E081E090E0022E02C0880F991F0A94DF
:10313000E2F7809584238C938EC08B818130A1F43B
:10314000A7E3B0E0E7E3F0E08081482F8A81282FF1
:1031500030E081E090E0022E02C0880F991F0A94AF
:10316000E2F7842B8C9377C08B81882309F073C09E
:10317000A7E3B0E0E7E3F0E08081482F8A81282FC1
:1031800030E081E090E0022E02C0880F991F0A947F
:10319000E2F7809584238C935EC08B818130A1F40B
:1031A000A4E3B0E0E4E3F0E08081482F8A81282F97
:1031B00030E081E090E0022E02C0880F991F0A944F
:1031C000E2F7842B8C9347C08B81882309F043C09E
:1031D000A4E3B0E0E4E3F0E08081482F8A81282F67
:1031E00030E081E090E0022E02C0880F991F0A941F
:1031F000E2F7809584238C932EC08B818130A1F4DB
:10320000A1E3B0E0E1E3F0E08081482F8A81282F3C
:1032100030E081E090E0022E02C0880F991F0A94EE
:10322000E2F7842B8C9317C08B818823A1F4A1E350
:10323000B0E0E1E3F0E08081482F8A81282F30E080
:1032400081E090E0022E02C0880F991F0A94E2F7F5
:10325000809584238C930F900F900F900F900F9078
:10326000CF91DF910895DF93CF9300D000D00F92DC
:10327000CDB7DEB789836A834B838981843008F0B8
:10328000D5C08A81883008F0D1C08981282F30E0EC
:103290003D832C838C819D818130910509F443C04D
:1032A0002C813D81223031052CF48C819D81009749
:1032B00071F0BCC02C813D812230310509F45FC022
:1032C0008C819D818330910509F485C0AFC08B81CD
:1032D0008130A1F4ABE3B0E0EBE3F0E08081482F74
:1032E0008A81282F30E081E090E0022E02C0880F12
:1032F000991F0A94E2F7842B8C9398C0ABE3B0E05B
:10330000EBE3F0E08081482F8A81282F30E081E0D4
:1033100090E0022E02C0880F991F0A94E2F7809570
:1033200084238C9383C08B818130A1F4A8E3B0E027
:10333000E8E3F0E08081482F8A81282F30E081E0A7
:1033400090E0022E02C0880F991F0A94E2F7842BA6
:103350008C936CC0A8E3B0E0E8E3F0E08081482FF4
:103360008A81282F30E081E090E0022E02C0880F91
:10337000991F0A94E2F7809584238C9357C08B8120
:103380008130A1F4A5E3B0E0E5E3F0E08081482FCF
:103390008A81282F30E081E090E0022E02C0880F61
:1033A000991F0A94E2F7842B8C9340C0A5E3B0E008
:1033B000E5E3F0E08081482F8A81282F30E081E02A
:1033C00090E0022E02C0880F991F0A94E2F78095C0
:1033D00084238C932BC08B818130A1F4A2E3B0E0D5
:1033E000E2E3F0E08081482F8A81282F30E081E0FD
:1033F00090E0022E02C0880F991F0A94E2F7842BF6
:103400008C9314C0A2E3B0E0E2E3F0E08081482FA7
:103410008A81282F30E081E090E0022E02C0880FE0
:10342000991F0A94E2F7809584238C930F900F9054
:103430000F900F900F90CF91DF910895DF93CF936E
:1034400000D000D00F92CDB7DEB789836A8389811F
:10345000843008F070C08A81883008F06CC089819F
:10346000282F30E03D832C834C815D814130510514
:1034700049F18C819D818230910534F42C813D810C
:103480002115310561F057C04C815D8142305105F5
:1034900061F18C819D8183309105D1F14CC0E9E3CC
:1034A000F0E08081282F30E08A81882F90E0A90108
:1034B00002C0559547958A95E2F7CA01582F517079
:1034C0005B833AC0E6E3F0E08081282F30E08A8118
:1034D000882F90E0A90102C0559547958A95E2F79B
:1034E000CA01582F51705B8327C0E3E3F0E080816D
:1034F000282F30E08A81882F90E0A90102C05595DD
:1035000047958A95E2F7CA01582F51705B8314C022
:10351000E0E3F0E08081282F30E08A81882F90E07E
:10352000A90102C0559547958A95E2F7CA01582F1F
:1035300051705B8301C01B828B810F900F900F90A5
:103540000F900F90CF91DF910895DF93CF9300D02C
:1035500000D0CDB7DEB789836A838981843090F546
:103560008981282F30E03C832B838B819C818130A3
:103570009105D1F02B813C81223031052CF48B81D7
:103580009C81009761F01EC02B813C812230310567
:1035900081F08B819C818330910581F013C0EAE337
:1035A000F0E08A8180830EC0E7E3F0E08A818083C7
:1035B00009C0E4E3F0E08A81808304C0E1E3F0E045
:1035C0008A8180830F900F900F900F90CF91DF91A1
:1035D0000895DF93CF9300D000D0CDB7DEB78983B5
:1035E0006A838981843090F58981282F30E03C837B
:1035F0002B838B819C8181309105D1F02B813C8183
:10360000223031052CF48B819C81009761F01EC023
:103610002B813C812230310581F08B819C8183306C
:10362000910581F013C0EBE3F0E08A8180830EC046
:10363000E8E3F0E08A81808309C0E5E3F0E08A8175
:10364000808304C0E2E3F0E08A8180830F900F90D2
:103650000F900F90CF91DF910895DF93CF9300D01B
:1036600000D0CDB7DEB789838981843098F5898110
:10367000282F30E03C832B838B819C818130910506
:10368000D1F02B813C81223031052CF48B819C813F
:10369000009761F01FC02B813C812230310581F001
:1036A0008B819C818330910581F014C0E9E3F0E0C7
:1036B00090819A8310C0E6E3F0E020812A830BC05A
:1036C000E3E3F0E030813A8306C0E0E3F0E080819C
:1036D0008A8301C01A828A810F900F900F900F90F9
:1036E000CF91DF910895DF93CF93CDB7DEB781E01F
:1036F00060E041E00E94391881E061E041E00E9411
:10370000391881E062E041E00E94391881E063E00D
:1037100041E00E94391880E063E040E00E943918DF
:1037200080E064E040E00E94391880E065E040E01D
:103730000E94391880E066E040E00E94391881E07C
:1037400060E041E00E94331981E061E041E00E94C5
:10375000331981E062E041E00E94331981E063E0C7
:1037600041E00E943319CF91DF910895DF93CF9309
:10377000CDB7DEB761970FB6F894DEBF0FBECDBFF1
:1037800082E38F87188A9FC081E0688940E00E94A9
:103790003319198A1BC08989982F9D5F80E0692F92
:1037A0000E941E1A882379F48889882F90E0880F58
:1037B000991F880F991F982F8989890F8F5F0E9401
:1037C000711C8F8706C089898F5F898B89898430B6
:1037D00010F381E0688941E00E94331980E090E0B5
:1037E000A0EAB0E48B879C87AD87BE876B857C851C
:1037F0008D859E8520E030E04AE753E40E949C02DC
:10380000DC01CB018F839887A987BA876F81788580
:1038100089859A8520E030E040E85FE30E94D20489
:1038200088232CF481E090E09E838D833FC06F81DC
:10383000788589859A8520E03FEF4FE757E40E941D
:10384000720418164CF56B857C858D859E8520E06D
:1038500030E040E251E40E949C02DC01CB01BC015B
:10386000CD010E94C600DC01CB019E838D830FC079
:1038700089E190E09C838B838B819C810197F1F798
:103880009C838B838D819E8101979E838D838D8107
:103890009E81009769F714C06F81788589859A8524
:1038A0000E94C600DC01CB019E838D838D819E81A9
:1038B0009A83898389819A810197F1F79A83898311
:1038C00088898F5F888B8889843008F45DCF8F85E5
:1038D00061960FB6F894DEBF0FBECDBFCF91DF91DA
:1038E0000895DF93CF9300D000D0CDB7DEB78A83A1
:1038F00019828A81282F30E03C832B838B819C8125
:103900008830910509F470C02B813C812930310544
:103910005CF58B819C818430910509F459C02B8121
:103920003C81253031059CF48B819C81823091054E
:1039300009F448C02B813C81233031050CF045C08F
:103940008B819C818130910509F439C067C02B813E
:103950003C812630310509F441C08B819C81873040
:1039600091050CF03EC037C02B813C812C303105D5
:1039700009F446C08B819C818D3091055CF42B81CC
:103980003C812A303105B1F18B819C818B309105CE
:10399000A4F52DC02B813C812E303105B9F18B81EE
:1039A0009C818E3091057CF12B813C812F3031053B
:1039B00079F18B819C818031910569F12FC081E083
:1039C00089832EC082E089832BC083E0898328C04D
:1039D0008DE0898325C084E0898322C085E08983C6
:1039E0001FC086E089831CC08EE0898319C087E0F0
:1039F000898316C088E0898313C089E0898310C059
:103A00008FE089830DC08AE089830AC0198208C0CB
:103A10008CE0898305C080E1898302C08A81898323
:103A200089810F900F900F900F90CF91DF910895A3
:103A3000DF93CF93CDB7DEB72E970FB6F894DEBFE6
:103A40000FBECDBF80E061E041E00E94391880E008
:103A500062E041E00E94391880E090E0A0EAB1E421
:103A60008B879C87AD87BE876B857C858D859E8582
:103A700020E030E04AE753E40E949C02DC01CB01E5
:103A80008F839887A987BA876F81788589859A857A
:103A900020E030E040E85FE30E94D20488232CF469
:103AA00081E090E09E838D833FC06F81788589851A
:103AB0009A8520E03FEF4FE757E40E947204181602
:103AC0004CF56B857C858D859E8520E030E040E25D
:103AD00051E40E949C02DC01CB01BC01CD010E949B
:103AE000C600DC01CB019E838D830FC089E190E08D
:103AF0009C838B838B819C810197F1F79C838B83C3
:103B00008D819E8101979E838D838D819E810097FB
:103B100069F714C06F81788589859A850E94C600EF
:103B2000DC01CB019E838D838D819E819A83898365
:103B300089819A810197F1F79A83898382E060E015
:103B400041E00E94391882E061E041E00E943918AA
:103B500082E066E041E00E94391882E067E041E0DF
:103B60000E94391883E30E94CA1D82E30E94CA1D85
:103B700088E20E94CA1D8CE00E94CA1D81E00E945A
:103B8000CA1D2E960FB6F894DEBF0FBECDBFCF91E3
:103B9000DF9108950F931F93DF93CF93CDB7DEB7D7
:103BA000C356D0400FB6F894DEBF0FBECDBFFE01A6
:103BB000ED59FF4F808380E061E040E00E943319BF
:103BC000FE01E15AFF4F80E090E0A0E8BFE3808370
:103BD0009183A283B3838E01055A1F4FFE01E15AE0
:103BE000FF4F608171818281938120E030E04AE75C
:103BF00053E40E949C02DC01CB01F8018083918395
:103C0000A283B383FE01E55AFF4F608171818281F7
:103C1000938120E030E040E85FE30E94D2048823F3
:103C200044F4FE01E75AFF4F81E090E091838083E6
:103C300064C0FE01E55AFF4F6081718182819381EA
:103C400020E03FEF4FE757E40E94720418160CF093
:103C500043C0FE01E15AFF4F6081718182819381EF
:103C600020E030E040E251E40E949C02DC01CB0104
:103C70008E01075A1F4FBC01CD010E94C600DC0116
:103C8000CB01F801918380831FC0FE01E95AFF4FE9
:103C900089E190E091838083FE01E95AFF4F8081A2
:103CA00091810197F1F7FE01E95AFF4F91838083DB
:103CB000DE01A75ABF4FFE01E75AFF4F8081918175
:103CC000019711969C938E93FE01E75AFF4F8081D6
:103CD00091810097D1F627C08E01075A1F4FFE0130
:103CE000E55AFF4F60817181828193810E94C600F5
:103CF000DC01CB01F80191838083DE01AB5ABF4F19
:103D0000FE01E75AFF4F808191818D939C93FE01C4
:103D1000EB5AFF4F808191810197F1F7FE01EB5A39
:103D2000FF4F9183808380E062E041E00E9433197D
:103D3000FE01EF5AFF4F80E090E0A0E8BFE38083F0
:103D40009183A283B3838E01035B1F4FFE01EF5A61
:103D5000FF4F608171818281938120E030E04AE7EA
:103D600053E40E949C02DC01CB01F8018083918323
:103D7000A283B383FE01E35BFF4F60817181828187
:103D8000938120E030E040E85FE30E94D204882382
:103D900044F4FE01E55BFF4F81E090E09183808376
:103DA00064C0FE01E35BFF4F60817181828193817A
:103DB00020E03FEF4FE757E40E94720418160CF022
:103DC00043C0FE01EF5AFF4F608171818281938170
:103DD00020E030E040E251E40E949C02DC01CB0193
:103DE0008E01055B1F4FBC01CD010E94C600DC01A6
:103DF000CB01F801918380831FC0FE01E75BFF4F79
:103E000089E190E091838083FE01E75BFF4F808131
:103E100091810197F1F7FE01E75BFF4F918380836A
:103E2000DE01A55BBF4FFE01E55BFF4F8081918105
:103E3000019711969C938E93FE01E55BFF4F808165
:103E400091810097D1F627C08E01055B1F4FFE01BF
:103E5000E35BFF4F60817181828193810E94C60084
:103E6000DC01CB01F80191838083DE01A95BBF4FA8
:103E7000FE01E55BFF4F808191818D939C93FE0154
:103E8000E95BFF4F808191810197F1F7FE01E95BCA
:103E9000FF4F91838083FE01ED59FF4F8081829512
:103EA0008F70982F917082E060E0492F0E94331943
:103EB000FE01ED59FF4F8081829586958770982F7E
:103EC000917082E061E0492F0E943319FE01ED59A3
:103ED000FF4F80818295869586958370982F91708B
:103EE00082E066E0492F0E943319FE01ED59FF4F31
:103EF0008081982F991F9927991F82E067E0492FA9
:103F00000E943319FE01ED5BFF4F80E090E0A0E8D6
:103F1000BFE380839183A283B3838E01015C1F4F33
:103F2000FE01ED5BFF4F608171818281938120E012
:103F300030E04AE753E40E949C02DC01CB01F80127
:103F400080839183A283B383FE01FF966081718198
:103F50008281938120E030E040E85FE30E94D20458
:103F600088232CF481E090E09EAF8DAF46C0FE0127
:103F7000FF96608171818281938120E03FEF4FE75E
:103F800057E40E947204181664F5FE01ED5BFF4FC2
:103F9000608171818281938120E030E040E251E4D0
:103FA0000E949C02DC01CB01BC01CD010E94C60035
:103FB000DC01CB019EAF8DAF0FC089E190E09CAFDB
:103FC0008BAF8BAD9CAD0197F1F79CAF8BAF8DADF7
:103FD0009EAD01979EAF8DAF8DAD9EAD009769F7F9
:103FE00016C0FE01FF9660817181828193810E94DB
:103FF000C600DC01CB019EAF8DAF8DAD9EAD9AAFFB
:1040000089AF89AD9AAD0197F1F79AAF89AF80E09A
:1040100062E040E00E94331980E090E0A0E8BFE356
:104020008DAB9EABAFABB8AF6DA97EA98FA998AD94
:1040300020E030E04AE753E40E949C02DC01CB011F
:1040400089AB9AABABABBCAB69A97AA98BA99CA98C
:1040500020E030E040E85FE30E94D20488232CF4A3
:1040600081E090E098AB8FA73FC069A97AA98BA99E
:104070009CA920E03FEF4FE757E40E947204181616
:104080004CF56DA97EA98FA998AD20E030E040E203
:1040900051E40E949C02DC01CB01BC01CD010E94D5
:1040A000C600DC01CB0198AB8FA70FC089E190E07F
:1040B0009EA78DA78DA59EA50197F1F79EA78DA719
:1040C0008FA598A9019798AB8FA78FA598A900975E
:1040D00069F714C069A97AA98BA99CA90E94C60096
:1040E000DC01CB0198AB8FA78FA598A99CA78BA7C4
:1040F0008BA59CA50197F1F79CA78BA780E062E0B8
:1041000041E00E94331980E090E0A0E8BFE38FA374
:1041100098A7A9A7BAA76FA178A589A59AA520E015
:1041200030E04AE753E40E949C02DC01CB018BA300
:104130009CA3ADA3BEA36BA17CA18DA19EA120E0F9
:1041400030E040E85FE30E94D20488232CF481E051
:1041500090E09AA389A33FC06BA17CA18DA19EA1F1
:1041600020E03FEF4FE757E40E94720418164CF529
:104170006FA178A589A59AA520E030E040E251E43E
:104180000E949C02DC01CB01BC01CD010E94C60053
:10419000DC01CB019AA389A30FC089E190E098A329
:1041A0008F8F8F8D98A10197F1F798A38F8F89A199
:1041B0009AA101979AA389A389A19AA1009769F767
:1041C00014C06BA17CA18DA19EA10E94C600DC0140
:1041D000CB019AA389A389A19AA19E8F8D8F8D8DE2
:1041E0009E8D0197F1F79E8F8D8FFE01ED59FF4F48
:1041F0008081982F917082E060E0492F0E943319EE
:10420000FE01ED59FF4F80818695982F917082E0D5
:1042100061E0492F0E943319FE01ED59FF4F808163
:1042200086958695982F917082E066E0492F0E94CE
:104230003319FE01ED59FF4F80818695869586954D
:10424000982F917082E067E0492F0E94331980E037
:1042500090E0A0E8BFE3898F9A8FAB8FBC8F698D08
:104260007A8D8B8D9C8D20E030E04AE753E40E94EC
:104270009C02DC01CB018D8B9E8BAF8BB88F6D893F
:104280007E898F89988D20E030E040E85FE30E94CE
:10429000D20488232CF481E090E09C8B8B8B3FC070
:1042A0006D897E898F89988D20E03FEF4FE757E435
:1042B0000E94720418164CF5698D7A8D8B8D9C8D39
:1042C00020E030E040E251E40E949C02DC01CB019E
:1042D000BC01CD010E94C600DC01CB019C8B8B8B05
:1042E0000FC089E190E09A8B898B89899A8901971F
:1042F000F1F79A8B898B8B899C8901979C8B8B8B8F
:104300008B899C89009769F714C06D897E898F8994
:10431000988D0E94C600DC01CB019C8B8B8B8B8916
:104320009C89988B8F878F8598890197F1F7988B57
:104330008F8780E062E040E00E94331980E090E0E7
:10434000A0E8BFE38B879C87AD87BE876B857C85A4
:104350008D859E8520E030E04AE753E40E949C0270
:10436000DC01CB018F839887A987BA876F81788515
:1043700089859A8520E030E040E85FE30E94D2041E
:1043800088232CF481E090E09E838D833FC06F8171
:10439000788589859A8520E03FEF4FE757E40E94B2
:1043A000720418164CF56B857C858D859E8520E002
:1043B00030E040E251E40E949C02DC01CB01BC01F0
:1043C000CD010E94C600DC01CB019E838D830FC00E
:1043D00089E190E09C838B838B819C810197F1F72D
:1043E0009C838B838D819E8101979E838D838D819C
:1043F0009E81009769F714C06F81788589859A85B9
:104400000E94C600DC01CB019E838D838D819E813D
:104410009A83898389819A810197F1F79A838983A5
:10442000CD59DF4F0FB6F894DEBF0FBECDBFCF9191
:10443000DF911F910F9108950F931F93DF93CF93F7
:10444000CDB7DEB7C356D0400FB6F894DEBF0FBE6F
:10445000CDBFFE01ED59FF4F808380E061E041E078
:104460000E943319FE01E15AFF4F80E090E0A0E87E
:10447000BFE380839183A283B3838E01055A1F4FCC
:10448000FE01E15AFF4F608171818281938120E0BA
:1044900030E04AE753E40E949C02DC01CB01F801C2
:1044A00080839183A283B383FE01E55AFF4F60812D
:1044B00071818281938120E030E040E85FE30E94D7
:1044C000D204882344F4FE01E75AFF4F81E090E0D4
:1044D0009183808364C0FE01E55AFF4F6081718142
:1044E0008281938120E03FEF4FE757E40E947204FE
:1044F00018160CF043C0FE01E15AFF4F6081718134
:104500008281938120E030E040E251E40E949C02ED
:10451000DC01CB018E01075A1F4FBC01CD010E9467
:10452000C600DC01CB01F801918380831FC0FE012E
:10453000E95AFF4F89E190E091838083FE01E95AB7
:10454000FF4F808191810197F1F7FE01E95AFF4FFA
:1045500091838083DE01A75ABF4FFE01E75AFF4FC8
:1045600080819181019711969C938E93FE01E75A69
:10457000FF4F808191810097D1F627C08E01075AA5
:104580001F4FFE01E55AFF4F608171818281938147
:104590000E94C600DC01CB01F80191838083DE011B
:1045A000AB5ABF4FFE01E75AFF4F808191818D9337
:1045B0009C93FE01EB5AFF4F808191810197F1F7A7
:1045C000FE01EB5AFF4F9183808380E062E041E07F
:1045D0000E943319FE01EF5AFF4F80E090E0A0E8FF
:1045E000BFE380839183A283B3838E01035B1F4F5C
:1045F000FE01EF5AFF4F608171818281938120E03B
:1046000030E04AE753E40E949C02DC01CB01F80150
:1046100080839183A283B383FE01E35BFF4F6081BC
:1046200071818281938120E030E040E85FE30E9465
:10463000D204882344F4FE01E55BFF4F81E090E063
:104640009183808364C0FE01E35BFF4F60817181D1
:104650008281938120E03FEF4FE757E40E9472048C
:1046600018160CF043C0FE01EF5AFF4F60817181B4
:104670008281938120E030E040E251E40E949C027C
:10468000DC01CB018E01055B1F4FBC01CD010E94F7
:10469000C600DC01CB01F801918380831FC0FE01BD
:1046A000E75BFF4F89E190E091838083FE01E75B48
:1046B000FF4F808191810197F1F7FE01E75BFF4F8A
:1046C00091838083DE01A55BBF4FFE01E55BFF4F59
:1046D00080819181019711969C938E93FE01E55BF9
:1046E000FF4F808191810097D1F627C08E01055B35
:1046F0001F4FFE01E35BFF4F6081718182819381D7
:104700000E94C600DC01CB01F80191838083DE01A9
:10471000A95BBF4FFE01E55BFF4F808191818D93C7
:104720009C93FE01E95BFF4F808191810197F1F736
:10473000FE01E95BFF4F91838083FE01ED59FF4F3E
:10474000808182958F70982F917082E060E0492F70
:104750000E943319FE01ED59FF4F808182958695A5
:104760008770982F917082E061E0492F0E94331981
:10477000FE01ED59FF4F8081829586958695837065
:10478000982F917082E066E0492F0E943319FE0154
:10479000ED59FF4F8081982F991F9927991F82E02B
:1047A00067E0492F0E943319FE01ED5BFF4F80E067
:1047B00090E0A0E8BFE380839183A283B3838E015E
:1047C000015C1F4FFE01ED5BFF4F608171818281B3
:1047D000938120E030E04AE753E40E949C02DC0130
:1047E000CB01F80180839183A283B383FE01FF96FE
:1047F000608171818281938120E030E040E85FE355
:104800000E94D20488232CF481E090E09EAF8DAF0B
:1048100046C0FE01FF96608171818281938120E014
:104820003FEF4FE757E40E947204181664F5FE014B
:10483000ED5BFF4F608171818281938120E030E0E8
:1048400040E251E40E949C02DC01CB01BC01CD019D
:104850000E94C600DC01CB019EAF8DAF0FC089E185
:1048600090E09CAF8BAF8BAD9CAD0197F1F79CAF07
:104870008BAF8DAD9EAD01979EAF8DAF8DAD9EADD3
:10488000009769F716C0FE01FF96608171818281F1
:1048900093810E94C600DC01CB019EAF8DAF8DAD30
:1048A0009EAD9AAF89AF89AD9AAD0197F1F79AAFF6
:1048B00089AF80E062E040E00E94331980E090E040
:1048C000A0E8BFE38DAB9EABAFABB8AF6DA97EA93F
:1048D0008FA998AD20E030E04AE753E40E949C02A3
:1048E000DC01CB0189AB9AABABABBCAB69A97AA9B4
:1048F0008BA99CA920E030E040E85FE30E94D2044D
:1049000088232CF481E090E098AB8FA73FC069A981
:104910007AA98BA99CA920E03FEF4FE757E40E94BA
:10492000720418164CF56DA97EA98FA998AD20E0E8
:1049300030E040E251E40E949C02DC01CB01BC016A
:10494000CD010E94C600DC01CB0198AB8FA70FC040
:1049500089E190E09EA78DA78DA59EA50197F1F70F
:104960009EA78DA78FA598A9019798AB8FA78FA514
:1049700098A9009769F714C069A97AA98BA99CA97D
:104980000E94C600DC01CB0198AB8FA78FA598A928
:104990009CA78BA78BA59CA50197F1F79CA78BA73C
:1049A00080E062E041E00E94331980E090E0A0E8FE
:1049B000BFE38FA398A7A9A7BAA76FA178A589A5D8
:1049C0009AA520E030E04AE753E40E949C02DC0113
:1049D000CB018BA39CA3ADA3BEA36BA17CA18DA196
:1049E0009EA120E030E040E85FE30E94D2048823EB
:1049F0002CF481E090E09AA389A33FC06BA17CA135
:104A00008DA19EA120E03FEF4FE757E40E94720482
:104A100018164CF56FA178A589A59AA520E030E07D
:104A200040E251E40E949C02DC01CB01BC01CD01BB
:104A30000E94C600DC01CB019AA389A30FC089E1C3
:104A400090E098A38F8F8F8D98A10197F1F798A38D
:104A50008F8F89A19AA101979AA389A389A19AA16D
:104A6000009769F714C06BA17CA18DA19EA10E9443
:104A7000C600DC01CB019AA389A389A19AA19E8FCC
:104A80008D8F8D8D9E8D0197F1F79E8F8D8FFE01FD
:104A9000ED59FF4F8081982F917082E060E0492F9F
:104AA0000E943319FE01ED59FF4F80818695982FA2
:104AB000917082E061E0492F0E943319FE01ED59A7
:104AC000FF4F808186958695982F917082E066E0F1
:104AD000492F0E943319FE01ED59FF4F80818695C1
:104AE00086958695982F917082E067E0492F0E9405
:104AF000331980E090E0A0E8BFE3898F9A8FAB8FF5
:104B0000BC8F698D7A8D8B8D9C8D20E030E04AE7DB
:104B100053E40E949C02DC01CB018D8B9E8BAF8BFA
:104B2000B88F6D897E898F89988D20E030E040E8CC
:104B30005FE30E94D20488232CF481E090E09C8BF8
:104B40008B8B3FC06D897E898F89988D20E03FEFE8
:104B50004FE757E40E94720418164CF5698D7A8D60
:104B60008B8D9C8D20E030E040E251E40E949C025D
:104B7000DC01CB01BC01CD010E94C600DC01CB01F0
:104B80009C8B8B8B0FC089E190E09A8B898B8989F4
:104B90009A890197F1F79A8B898B8B899C89019768
:104BA0009C8B8B8B8B899C89009769F714C06D89CE
:104BB0007E898F89988D0E94C600DC01CB019C8B79
:104BC0008B8B8B899C89988B8F878F859889019790
:104BD000F1F7988B8F8780E062E040E00E94331904
:104BE00080E090E0A0E8BFE38B879C87AD87BE871D
:104BF0006B857C858D859E8520E030E04AE753E417
:104C00000E949C02DC01CB018F839887A987BA8719
:104C10006F81788589859A8520E030E040E85FE300
:104C20000E94D20488232CF481E090E09E838D833F
:104C30003FC06F81788589859A8520E03FEF4FE7F7
:104C400057E40E94720418164CF56B857C858D859F
:104C50009E8520E030E040E251E40E949C02DC01AD
:104C6000CB01BC01CD010E94C600DC01CB019E83BB
:104C70008D830FC089E190E09C838B838B819C8125
:104C80000197F1F79C838B838D819E8101979E8391
:104C90008D838D819E81009769F714C06F8178851F
:104CA00089859A850E94C600DC01CB019E838D8395
:104CB0008D819E819A83898389819A810197F1F7F9
:104CC0009A838983CD59DF4F0FB6F894DEBF0FBEAC
:104CD000CDBFCF91DF911F910F910895DF93CF93B7
:104CE00000D00F92CDB7DEB79B838A8319820EC0A6
:104CF0008981282F30E08A819B81FC01E20FF31F1C
:104D000080810E941C2289818F5F89838981282F5D
:104D100030E08A819B81FC01E20FF31F80818823B0
:104D200039F70F900F900F90CF91DF910895DF9397
:104D3000CF9300D000D00F92CDB7DEB78A836B83BC
:104D400019828A81282F30E03D832C838C819D81BC
:104D500081309105C1F02C813D81223031052CF448
:104D60008C819D81009761F019C02C813D8122309A
:104D7000310569F08C819D818330910561F00EC011
:104D80008B8189830BC08B81805C898307C08B8179
:104D9000805F898303C08B81805B89838981806880
:104DA0000E94CA1D0F900F900F900F900F90CF91FF
:104DB000DF910895DF93CF9300D000D0CDB7DEB759
:104DC00089836A835C834B8389816A810E949726E9
:104DD0008B819C810E946E260F900F900F900F90F8
:104DE000CF91DF910895DF93CF93CDB7DEB781E008
:104DF0000E94CA1DCF91DF910895DF93CF93CDB765
:104E0000DEB762970FB6F894DEBF0FBECDBF9A8BA8
:104E1000898B89899A899E012F5F3F4FB9014AE0AA
:104E200050E00E94CA27CE0101960E946E2662962B
:104E30000FB6F894DEBF0FBECDBFCF91DF910895BE
:104E40000F931F93DF93CF93CDB7DEB769970FB65C
:104E5000F894DEBF0FBECDBF6D8B7E8B8F8B988F8E
:104E6000498F8D899E89AF89B88DBC01CD0145E000
:104E7000298DFE0131968F010E94A927CE0101964E
:104E80000E946E2669960FB6F894DEBF0FBECDBFA6
:104E9000CF91DF911F910F910895DF93CF930F92E0
:104EA000CDB7DEB70E94F50880E060E00E9497264B
:104EB00082E3898387ED91E00E946E260E94B61BF3
:104EC00089838981823339F080E060E00E949726EF
:104ED00089810E94120981E060E00E9497260E9469
:104EE000EB0BECCF2F923F924F925F926F927F929B
:104EF0008F929F92AF92BF92CF92DF92EF92FF92EA
:104F00000F931F93CF93DF93CDB7DEB7CA1BDB0B95
:104F10000FB6F894DEBF0FBECDBF09942A8839883A
:104F200048885F846E847D848C849B84AA84B98441
:104F3000C884DF80EE80FD800C811B81AA81B9814D
:104F4000CE0FD11D0FB6F894DEBF0FBECDBFED0161
:104F50000895EF92FF920F931F93F22FF02E47FDCB
:104F600002C0E4E001C0E4E1242F332727FD30959F
:104F700037FF03C0309521953F4F4F2D512F0F2FF5
:104F8000EE2E0E94EB278F2D912F1F910F91FF90F6
:104F9000EF900895FB019F01E8944230C4F0453240
:104FA000B4F44A3029F497FB1EF4909581959F4FF5
:104FB000642F77270E94352A805D8A330CF0895D43
:104FC0008193CB010097A1F716F45DE25193108213
:104FD000C9010C94252AA9E0B0E0E1EFF7E20C94B6
:104FE00076276A01122FA02EBE2C2BE3201718F46F
:104FF0002CE3922E02C0902E9394AE014F5F5F4F30
:1050000027E0092D0E944D29BC018981E82EFF244B
:10501000C70189709070019711F4ADE209C0B1FE2B
:1050200002C0ABE205C0B0FC02C0A0E001C0A0E23B
:10503000E3FE3BC0AA2311F423E001C024E02117C2
:1050400010F020E002C0121B212FEB2CB4FE02C096
:10505000322F0AC0F601322F80E202C08193315014
:105060003323E1F7C20ED11CAA2319F0F601A19354
:105070006F01F6013196E2FE05C09EE4D6019C93D5
:1050800081E404C09EE6D6019C9381E611968C9340
:1050900091833296DF01832F90E202C09D9381506D
:1050A0008823E1F7E30FF11D40C0E2FE42C0AA23CE
:1050B00011F423E001C024E0211710F020E002C029
:1050C000121B212FEB2CB4FE02C0922F0AC0F60156
:1050D000922F80E202C0819391509923E1F7C20E92
:1050E000D11CAA2319F0F601A1936F01F6013196A4
:1050F000E2FE08C089E4D6018C938EE411968C936D
:1051000086E407C089E6D6018C938EE611968C93CF
:1051100086E681833296DF01892F20E202C02D933B
:1051200081508823E1F7E90FF11D10822EEF3FEF48
:10513000AFC0161617061CF041E050E003C0AB01EB
:105140004F5F5F4FAA2019F480E090E003C08A2DE2
:1051500090E0019620E030E0AA2311F021E030E059
:10516000240F351F280F391F812F90E0281739078A
:1051700014F020E002C0121B212F4B2D50E0CA0179
:1051800080719070B4FC0DC0B3FC0BC0F601322FDF
:1051900040E202C0419331503323E1F7C20ED11CEB
:1051A00001C0322FAA2319F0F601A1936F01892BB8
:1051B00011F0132F0AC0F601132F80E302C0819370
:1051C00011501123E1F7C30ED11C092D060FBA802F
:1051D00090E1892E912C8E209F20E4FE04C0F1E303
:1051E000BF1609F40150101614F001E003C0093095
:1051F00008F008E09B0177FF02C020E030E0CB011F
:105200000196821B930BFE013196E80FF91F8EE287
:10521000F82E3B01601A71088A2D90E0442755272B
:10522000481B590B8FEF2F3F380719F4D601FD9219
:105230006D01621773072CF06216730614F48081F7
:1052400001C080E32150304031962417350724F007
:10525000D6018D936D01E6CF2617370749F4B5E3E4
:10526000BB1528F0BB1621F48114910409F481E3E5
:10527000F6018193D601812F90E202C09C93815068
:1052800011968823D9F7E10FF11D108220E030E05C
:10529000C9012996EEE00C949227283008F027E007
:1052A0003327DA01990F311D87FD91600096610562
:1052B000710539F432602E5F3D9330E32A95E1F7B2
:1052C00008959F3F30F080387105610509F03C5F1B
:1052D0003C5F3D93913008F08068911DDF93CF9340
:1052E0001F930F93FF92EF92192F987F9695E92FB6
:1052F00096959695E90FFF27E255FF4F992733279B
:10530000EE24FF24A701E70105900894079428F4F0
:10531000360FE71EF81E491F511D660F771F881FA5
:10532000991F0694A1F70590079428F4E70EF81E3C
:10533000491F561FC11D770F881F991F661F0694AE
:10534000A1F70590079428F4F80E491F561FC71FB0
:10535000D11D880F991F661F771F0694A1F705902E
:10536000079420F4490F561FC71FD81F990F661FB7
:10537000771F881F0694A9F784911095177041F044
:10538000D695C79557954795F794E7941A95C1F721
:10539000E4E5F0E06894159015913591659195914B
:1053A00005907FE27395E118F10A430B560BC90B88
:1053B000D009C0F7E10CF11E431F561FC91FD01DB5
:1053C0007EF4703311F48A95E6CFE894015030F002
:1053D000080F0AF40027021708F4202F2395022F44
:1053E0007A3328F079E37D932A95E9F710C07D930D
:1053F0002A9589F60694979567953795179517948A
:10540000E118F10A430B560BC90BD00998F023950C
:105410007E9173957A3308F070E37C932013B8F78C
:105420007E9170617D9330F0839571E37D9370E39D
:105430002A95E1F71124EF90FF900F911F91CF91E2
:10544000DF91992787FD90950895DC01FC01672F76
:1054500071917723E1F7329704C07C916D9370834B
:105460006291AE17BF07C8F30895AA1BBB1B51E199
:1054700007C0AA1FBB1FA617B70710F0A61BB70BC4
:10548000881F991F5A95A9F780959095BC01CD0169
:065490000895F894FFCF1F
:1054960056203230202D3E2032303020202000563B
:1054A6002034202D3E20323020202020200056207F
:1054B600302E38202D3E203420202020005620314A
:1054C6006D202D3E20302E38202020004120353002
:1054D6006D202D3E20312020202000412031306DCE
:1054E600202D3E2035306D2020004120316D202DAD
:1054F6003E2031306D20202000522035304B202DAB
:105506003E20314D202020005220314B202D3E20C0
:1055160035304B20202020005220343030202D3EC4
:1055260020314B2020202000202020202020202059
:10553600200041432020202020202000444320201A
:10554600202020202000205620202020202020203F
:105556002000206D56202020202020202020002002
:105566006D562020202020202020002041202020B1
:1055760020202020202000206D41202020202020D7
:1055860020202000204B4F686D2020202020202046
:1055960020202000204F686D202020202020202061
:1055A600202020002057656C636F6D652000456ED6
:1055B600746572207468652050617373203A0057D1
:1055C600656C636F6D6520746F20415652004D55B2
:1055D6004C5449204D4554455200496E636F7272D2
:1055E60065637420506173730052656D61696E69FD
:1055F6006E672074727920005761697420666F7235
:105606002035205365630053656C65637420412023
:1056160052616E6765000000000000000000000196
:10562600020203030303040404040404040405053A
:105636000505050505050505050505050505060612
:1056460006060606060606060606060606060606F4
:1056560006060606060606060606060606060707E2
:1056660007070707070707070707070707070707C4
:1056760007070707070707070707070707070707B4
:1056860007070707070707070707070707070707A4
:105696000707070707070707070707070707080892
:1056A6000808080808080808080808080808080874
:1056B6000808080808080808080808080808080864
:1056C6000808080808080808080808080808080854
:1056D6000808080808080808080808080808080844
:1056E6000808080808080808080808080808080834
:1056F6000808080808080808080808080808080824
:105706000808080808080808080808080808080813
:105716000808080808080808080808080808010012
:0C57260000803F02070902000003010799
:00000001FF
